{
  "contractName": "Funder",
  "abi": [
    {
      "inputs": [
        {
          "internalType": "uint256",
          "name": "",
          "type": "uint256"
        }
      ],
      "name": "funders",
      "outputs": [
        {
          "internalType": "address",
          "name": "",
          "type": "address"
        }
      ],
      "stateMutability": "view",
      "type": "function",
      "constant": true
    },
    {
      "inputs": [],
      "name": "numOfFunder",
      "outputs": [
        {
          "internalType": "uint256",
          "name": "",
          "type": "uint256"
        }
      ],
      "stateMutability": "view",
      "type": "function",
      "constant": true
    },
    {
      "stateMutability": "payable",
      "type": "receive",
      "payable": true
    },
    {
      "inputs": [],
      "name": "transfer",
      "outputs": [],
      "stateMutability": "payable",
      "type": "function",
      "payable": true
    },
    {
      "inputs": [
        {
          "internalType": "uint256",
          "name": "withdrawAmount",
          "type": "uint256"
        }
      ],
      "name": "withdraw",
      "outputs": [],
      "stateMutability": "nonpayable",
      "type": "function"
    }
  ],
  "bytecode": "0x608060405234801561001057600080fd5b506103d4806100206000396000f3fe6080604052600436106100435760003560e01c80632e1a7d4d1461004f5780635631d962146100785780638a4068dd146100a3578063dc0d3dff146100ad5761004a565b3661004a57005b600080fd5b34801561005b57600080fd5b5061007660048036038101906100719190610248565b6100ea565b005b34801561008457600080fd5b5061008d61017f565b60405161009a9190610284565b60405180910390f35b6100ab610185565b005b3480156100b957600080fd5b506100d460048036038101906100cf9190610248565b6101da565b6040516100e191906102e0565b60405180910390f35b676f05b59d3b200000811115610135576040517f08c379a000000000000000000000000000000000000000000000000000000000815260040161012c9061037e565b60405180910390fd5b3373ffffffffffffffffffffffffffffffffffffffff166108fc829081150290604051600060405180830381858888f1935050505015801561017b573d6000803e3d6000fd5b5050565b60005481565b33600160008054815260200190815260200160002060006101000a81548173ffffffffffffffffffffffffffffffffffffffff021916908373ffffffffffffffffffffffffffffffffffffffff160217905550565b60016020528060005260406000206000915054906101000a900473ffffffffffffffffffffffffffffffffffffffff1681565b600080fd5b6000819050919050565b61022581610212565b811461023057600080fd5b50565b6000813590506102428161021c565b92915050565b60006020828403121561025e5761025d61020d565b5b600061026c84828501610233565b91505092915050565b61027e81610212565b82525050565b60006020820190506102996000830184610275565b92915050565b600073ffffffffffffffffffffffffffffffffffffffff82169050919050565b60006102ca8261029f565b9050919050565b6102da816102bf565b82525050565b60006020820190506102f560008301846102d1565b92915050565b600082825260208201905092915050565b7f796f752063616e206e6f74207769746864726177206d6f7265207468616e203560008201527f2065746865720000000000000000000000000000000000000000000000000000602082015250565b60006103686026836102fb565b91506103738261030c565b604082019050919050565b600060208201905081810360008301526103978161035b565b905091905056fea2646970667358221220e1fde70969a6c513cfaa36ddc0dabcbdbe627718b39539b34c454601cd6e7a0164736f6c634300080c0033",
  "immutableReferences": {},
  "source": "// SPDX-License-Identifier: MIT\r\npragma solidity >=0.4.22 <0.9.0;\r\n\r\ncontract Funder {\r\n    uint256 public numOfFunder;\r\n\r\n    mapping(uint256 => address) public funders;\r\n\r\n    receive() external payable {}\r\n\r\n    function transfer() external payable {\r\n        funders[numOfFunder] = msg.sender;\r\n    }\r\n\r\n    function withdraw(uint256 withdrawAmount) external {\r\n        require(withdrawAmount <= 8000000000000000000,\"you can not withdraw more than 5 ether\");\r\n        payable(msg.sender).transfer(withdrawAmount);\r\n    }\r\n}\r\n",
  "sourcePath": "C:\\Users\\Rohit Patel\\Downloads\\SolidityProg\\Dapp\\contracts\\Funder.sol",
  "compiler": {
    "name": "solc",
    "version": "0.8.12+commit.f00d7308.Emscripten.clang"
  },
  "schemaVersion": "3.4.6",
  "updatedAt": "2022-04-11T10:36:00.248Z",
  "networkType": "ethereum",
  "devdoc": {
    "kind": "dev",
    "methods": {},
    "version": 1
  },
  "userdoc": {
    "kind": "user",
    "methods": {},
    "version": 1
  }
}